:100000000C94855A0D94D9A30D9404A40D942FA497
:100010000D945AA40D9485A40D94B0A40D94DBA462
:100020000D9406A50C94B65A0C94B65A0C94B65A74
:100030000C94B65A0C94B65A0C94B65A0C94B65A00
:100040000C94B65A0D94E08B0C94B65A0C94B65A94
:100050000C94B65A0C94B65A0D94C5A00D9431A5C3
:100060000C94B65A0C949B620C94B65A0C94B65AE3
:100070000C94B65A0C94B65A0C94B65A0C94276A3F
:100080000C94B65A0C94B65A0C94B65A0C94B65AB0
:100090000C94B65A0C94B65A0C94B65A0C94F5D1EA
:1000A0000C94B65A0C94B65A0C94B65A0C94B65A90
:1000B0000C94B65A0C94B65A0C94B65A0C94B65A80
:1000C0000C94B65A0C94B65A0C94B65A0C94B65A70
:1000D0000C94B65A0C94B65A0C94B65A0C94B65A60
:1000E0000C94B65A106634662666FE65206616665F
:1000F000E865F2654166456655661BB82DB83FB8A0
:1001000051B8F8B8F8B8F8B8F8B8F8B863B8F8B8AB
:10011000F8B8F8B8F8B8F8B8F8B8F8B8F8B8F8B85F
:10012000E1B8F8B8F8B8F8B8F8B8F8B8F8B8F8B866
:10013000F8B8F8B899B8ABB8BDB8CFB875B887B843
:10014000EFFCFBFCF8FCECFCF5FCF2FCE6FCE9FC4B
:10015000FEFC01FD04FDE4022E0356029E02B001E6
:100160004E02E6028A017202EC01D403D20272014D
:10017000760246034403CA0220033803FA02AA03A4
:100180002003BE010202C203D002DA02BA03200336
:10019000DE01BA01480320033403EA03B403220357
:1001A0006C02A602080204037E02CE023A025C033D
:1001B00088034E035E026C03CC03D202CA03CA0357
:1001C000CA03CA03CA032003CA03CA03CA0320031B
:1001D000CA03A80180016602720394032003180277
:1001E000C60114022003C603EA03B40322036C020F
:1001F000A602080204037E02CE023A025C038803D0
:100200004E035E026C03CC03FA0188015A03E60137
:10021000DA01DA01DA01DA01DA01DA018403AC0287
:10022000BA028603C0011C03AA022E02B8013402DE
:100230007A01B203D4017E011C026A02B002DA0321
:100240003802F4018C031A03AE03C0020C022C0323
:10025000B6018E039E0136026A030603A003F4036F
:10026000F002C401AA0198014602E0020603D2018D
:10027000A2033C022402E803BC023202D802D603E5
:10028000A20258030602A201860114032602760385
:10029000D60382018C010803084AD73B3BCE016E8E
:1002A00084BCBFFDC12F3D6C74319ABD56833DDACD
:1002B0003D00C77F11BED9E4BB4C3E916BAAAABEDC
:1002C000000000803F05A84CCDB2D44EB93836A905
:1002D000020C50B9918688083CA6AAAA2ABE000042
:1002E00000803F000D94AB5B0D94CF130C941DFD6B
:1002F0000D94740A0D94CCA10D944E090D9453A342
:100300000D94D95B0D9466A70D9410360D9452A7E9
:100310000D94D59B0D94EB010D946AA70C94F2FCFF
:100320000C94ACE50D94B03F0D9465240C9415F03D
:100330000D94D4A60C94CFB80C94D7FF0D9488A636
:100340000C94ACEB0D944EA70C94D2F20D943E108D
:100350000D94D55B0D94CAA60C94C4F10D94EC2EAB
:100360000D94F7010D9492050C94BEE40D947EA6B5
:100370000D94A5A10D94ED5B0C9497620D94CD5B4B
:100380000D9455A10D943E060D94C0A60D94F05BFE
:100390000C940EF00C94D4F90C941BB80D94240515
:1003A0000D94E73D0D94F7A60D9489A30D94F734B1
:1003B0000D944A450D94EF9B0D944C0D0D94E95B03
:1003C0000D94BC130C9410660D94B9130D94709C8D
:1003D0000D9466140D94514F0D9403020C9442E752
:1003E0000C9434660C941CF00D94C9A30C9479EF12
:1003F0000D94A9130D94739B0D949D4C0D94671748
:100400000D94151F0D94D35B0D940FA30D944AA763
:100410000D94095C0D94E9130D94CBA30D94BD2E9E
:100420000D94F61A0D94AA090D94F65B0D94CB1455
:100430000D94EB5B0D94154A0D945BA30D94F3059D
:100440000C94BDB80C9487B80D9439A70D945CA793
:100450000D94C3150C9404FD0D94341D0D9498A1B6
:100460000D94F81E0D942FA70D94BFA10D9492A684
:100470000D94A2A30D94115C0D940BA70D9401147F
:100480000D949D470C94F5FC0D94622D0D94E3A6FC
:100490000D94C0420C9428F00C943BE70D94F401A9
:1004A0000C94F8B80D94F82A0C94E6B40D94FA0163
:1004B0000C94E6FC0D9437490D94092C0D94195CAD
:1004C0000D9408090C94ECFC0D94A4470D94DF5B8B
:1004D0000D9499390D9467A30D94055C0D948E2CA1
:1004E0000D94360A0D9400020C9492B90D94AF5BF2
:1004F0000D9433490C944AE40C9418EE0D940D5C61
:100500000D94540B0C9439F00C94D4E80C94E1B88D
:100510000D94F10B0D948A2C0D943D370D94753686
:100520000D94C7150C949A620D9448080C9422B748
:100530000C949CFE0D94E8170C94CCF60D94EE01EF
:100540000D9430020D9440A70C9401FD0D94075CAE
:100550000C9455660D947EA10D94389D0C941666EE
:100560000D9474A30C94B5670D94DE0A0C9437BAFD
:100570000D94DC2C0D945C9D0D942BA70D946316AB
:100580000D94C5A30D9457070D9464200C944166F7
:100590000D94811C0D94BB5B0C9444F20D940F5C84
:1005A0000D94DD5B0D94A85B0C94C3F00D94C10E0B
:1005B0000D9435A70D94E15B0D94AB060C9493E973
:1005C0000D94EDA60C9420660D94F1010D94E801B4
:1005D0000C94FEFC0C94F2650D94253B0C94E8659C
:1005E0000D94B6A60D94D2430C9409F30C9481FC9F
:1005F0000C942DB80D94C35B0C943AB70D94363D12
:100600000C946EED0C94C4EF0D940B5C0D9415A737
:100610000D946EA70C9497C50D94B2240D94550FAC
:100620000C949CFA0D9449150D9458A70C9452E61D
:100630000C9444F10D94C1A30D9471A10D94CA19A9
:100640000D94245C0D94035C0C9475B80C949CE39D
:100650000C9452E70D9472250D94CDA30D94FD01D9
:100660000C94FBFC0D943AA30D94F95B0C9446EEAC
:100670000D94BF5B0D94AC080C94A1C50D941C1295
:100680000D9469280C9497E30D94B75B0D94B35BBC
:100690000D94F35B0D9445260C942EF00D94175C8D
:1006A0000C9411EC0D94B8070C9434E80C94D4F627
:1006B0000D9444A70D94409C0D94135C0C9463B866
:1006C0000D9414360D9468380D94C11A0D940C07CE
:1006D0000D9403080D949CA60D941B5C0C94ECB92E
:1006E0000D94180F0D94E35B0D9426050D9460A7EF
:1006F0000D94441A0C9480C50D94492B0D944721F8
:100700000C9445660C9451B80D94EC9C0D9443A147
:100710000D94155C0D94083A0D94BFA30D9483A617
:100720000C9429EB0C94CB9F0D94E75B0C94F8FC94
:100730000D94F3390C9426660D94E7340C9499B813
:100740000D94A6A60D9401A70D949F320C9483BB23
:100750000D948E230D94C85B0C9430EE0D94C3A3BE
:100760000D94E6160D94ECA10D94015C0C94B7E584
:100770000D9429330D94E55B0D945F220C94ABB876
:100780000C942ABC0D94D75B0C9478ED0D94FC5B13
:100790000C94EFFC0D94285C0D941D5C0C9463FC90
:1007A0000C94F09F0D94F0090D9406020D9473A71C
:1007B0000D94C9130D9495A30D9451340C94A4E396
:1007C0000C94DEBA0D94561A0C94CDB60C9425B048
:1007D0000D943CA70D94FF5B0C9446C40C94E9FC6B
:1007E0000D94D3130C94FE650D94AEA60D94BD002C
:1007F0000C943FB80D9481180D942A4C4E414E49EB
:100800004E495459494E46CDCCCC3D0AD7233C17CE
:10081000B7D13877CC2B329595E6241FB14F0A001B
:100820000020410000C84200401C4620BCBE4CCA0B
:100830001B0E5AAEC59D7400407A10F35A00A07288
:100840004E18090010A5D4E80000E876481700000B
:10085000E40B54020000CA9A3B000000E1F50500D9
:100860000080969800000040420F000000A0860122
:10087000000000102700000000E8030000000064F2
:1008800000000000000A000000000001000000005D
:10089000002C76D888DC674F0823DFC1DFAE59E132
:1008A000B1B796E5E3E453C63AE651997696E8E6A1
:1008B000C28426EB898C9B62ED407C6FFCEFBC9C74
:1008C0009F40F2BAA56FA5F490055A2AF75C936B86
:1008D0006CF9676DC11BFCE0E40D47FEF520E6B541
:1008E00000D0ED902E0300943577050080841E081B
:1008F0000000204E0A000000C80C333333330F9839
:100900006E12831141EF8D2114893BE65516CFFEFF
:10091000E6DB18D1844B381BF77C1D901DA4BBE48B
:1009200024203284725E228100C9F124ECA1E53DCD
:100930002748617264636F6465642044656661750D
:100940006C742053657474696E6773204C6F6164B6
:1009500065640048617264636F6465642044656621
:1009600061756C742053657474696E677320737459
:100970006F7265640053746F72656420736574747C
:10098000696E6773207265747269657665640020AC
:1009900044002049002020204D33303120500050A9
:1009A00049442073657474696E67733A00205A0075
:1009B00020590020204D323036205800486F6D6598
:1009C000206F666673657420286D6D293A00204596
:1009D00000205A0020580020420020540020204DC2
:1009E000323035205300416476616E636564207651
:1009F00061726961626C65733A20533D4D696E2086
:100A0000666565647261746520286D6D2F73292C8D
:100A100020543D4D696E2074726176656C20666568
:100A200065647261746520286D6D2F73292C2042D6
:100A30003D6D696E696D756D207365676D656E746A
:100A40002074696D6520286D73292C20583D6D61D7
:100A500078696D756D205859206A65726B20286D14
:100A60006D2F73292C20205A3D6D6178696D756D4D
:100A7000205A206A65726B20286D6D2F73292C20F7
:100A800020453D6D6178696D756D2045206A657200
:100A90006B20286D6D2F73290020540020204D32CB
:100AA0003034205300416363656C65726174696F13
:100AB0006E3A20533D616363656C65726174696F62
:100AC0006E2C20543D72657472616374206163639F
:100AD000656C65726174696F6E00204500205A0074
:100AE00020590020204D3230312058004D61786966
:100AF0006D756D20416363656C65726174696F6EBD
:100B000020286D6D2F7332293A00204500205A00AD
:100B100020590020204D3230332058004D61786933
:100B20006D756D2066656564726174657320286DEE
:100B30006D2F73293A00204500205A0020590020CB
:100B4000204D3932205800537465707320706572DF
:100B500020756E69743A0053657474696E6773200A
:100B600053746F726564006563686F3A0050726910
:100B70006E7465722073746F70706564206475653F
:100B800020746F206572726F72732E204669782010
:100B9000746865206572726F7220616E642075736F
:100BA00065204D39393920746F2072657374617214
:100BB000742E202854656D7065726174757265209D
:100BC00069732072657365742E205365742069748F
:100BD0002061667465722072657374617274696EE7
:100BE0006729005072696E7465722068616C746563
:100BF000642E206B696C6C28292063616C6C6564C1
:100C000021004D32323020532569004D31303620DD
:100C1000532569006F6B00526573656E643A20005E
:100C2000456E6473746F70207374696C6C2070729D
:100C30006573736564206166746572206261636BBD
:100C4000696E67206F66662E20456E6473746F70E0
:100C500020737475636B3F00456E6473746F70200E
:100C60006E6F74207072657373656420616674655D
:100C70007220686F6D696E6720646F776E2E2045F5
:100C80006E6473746F702062726F6B656E3F0022CA
:100C900000556E6B6E6F776E20636F6D6D616E6465
:100CA0003A202200456C656374726F6E6963735FEE
:100CB000746573740020423A300020423A31006F6C
:100CC0006B20523A005665722E322E342E312D4250
:100CD0003320004D37363920004D373637004D3739
:100CE00036352050313031004D37363520503130D7
:100CF00030004D3736352050004D373638205030D3
:100D0000004D373638205031003B4D415445524953
:100D1000414C3A003B54494D453A004D373634205A
:100D20005030004D373634205031004D37363320A7
:100D30005031004D373633205030004D3736322099
:100D40005030004D373632205031004D37363100AB
:100D50004D373630002200556E6B6E6F776E206314
:100D60006F6D6D616E643A2022007A5F6D61783A32
:100D70002000795F6D61783A2000785F6D61783A84
:100D80002000785F6D696E3A20005A3A00593A00A7
:100D900020436F756E7420583A20005A3A00593A31
:100DA0000020436F756E7420583A2000453A005A6F
:100DB0003A00593A00583A004649524D5741524577
:100DC0005F4E414D453A4D61726C696E20556C74B1
:100DD000696D616B6572323B20537072696E746528
:100DE000722F6772626C206D617368757020666F18
:100DF000722067656E36204649524D574152455F15
:100E000055524C3A687474703A2F2F7777772E6D5D
:100E1000656E64656C2D70617274732E636F6D20E6
:100E200050524F544F434F4C5F56455253494F4ECB
:100E30003A312E30204D414348494E455F54595078
:100E4000453A4F7665724C6F72642045585452553E
:100E50004445525F434F554E543A310A0020423ABE
:100E60000020453A00543A0020573A0020453A0005
:100E7000543A002042403A0020403A00202F0020FF
:100E8000423A00202F006F6B20543A002569206DF4
:100E9000696E2C2025692073656300456E642066A9
:100EA000696C65206C69737400426567696E2066C1
:100EB000696C65206C697374004732380A4D3834A8
:100EC000005072696E7465722073746F707065641F
:100ED0002064756520746F206572726F72732E20A6
:100EE00046697820746865206572726F7220616E41
:100EF0006420757365204D39393920746F2072650F
:100F000073746172742E202854656D7065726174FB
:100F10007572652069732072657365742E20536540
:100F200074206974206166746572207265737461DF
:100F30007274696E6729004E6F204C696E65204E91
:100F4000756D626572207769746820636865636B8C
:100F500073756D2C204C617374204C696E653A205A
:100F6000004E6F20436865636B73756D20776974FD
:100F700068206C696E65206E756D6265722C204C00
:100F8000617374204C696E653A2000636865636B19
:100F900073756D206D69736D617463682C204C618D
:100FA0007374204C696E653A20004C696E65204E62
:100FB000756D626572206973206E6F74204C617369
:100FC00074204C696E65204E756D6265722B312CF4
:100FD000204C617374204C696E653A20004D3131AC
:100FE00030006F6B00446F6E6520736176696E67C9
:100FF0002066696C652E006F6B004D323900202031
:10100000506C616E6E657242756666657242797487
:1010100065733A20002046726565204D656D6F72DC
:10102000793A20004F637420333020323031380059
:10103000436F6D70696C65643A20005665722E329C
:101040002E342E312D42332000207C2041757468CF
:101050006F723A20004F63742033302032303138C1
:101060002031353A31303A303500204C61737420EC
:10107000557064617465643A2000312E302E300062
:101080004D61726C696E200020536F6674776172D7
:101090006520526573657400205761746368646FDE
:1010A00067205265736574002042726F776E206FFF
:1010B0007574205265736574002045787465726E8E
:1010C000616C20526573657400506F77657255705E
:1010D000007374617274000101010000E0400000BF
:1010E000E0400000E04000004843000048430000AA
:1010F0008C430000000000000000008089430000D5
:10110000C8420000C842000082430000C8C200007C
:10111000C8C20000A0C10000164300001643000032
:1011200034430000000000000000000032430000D3
:1011300096420000964200002043000096C2000044
:1011400096C20000A0C100002A4300002A4300000C
:101150008C43000000000000000000008C430000F1
:10116000AA420000AA42000082430000AAC2000076
:10117000AAC20000A0C10000FC420000FC42000026
:101180008C43000000000000000000808E4300003F
:101190007C4200007C420000824300007CC20000D0
:1011A0007CC20000A0C16563686F3A004572726F2F
:1011B000723A0000002110422063308440A550C6DE
:1011C00060E770088129914AA16BB18CC1ADD1CE85
:1011D000E1EFF13112100273325222B5529442F70C
:1011E00072D662399318837BB35AA3BDD39CC3FFD5
:1011F000F3DEE36224433420040114E664C774A4DC
:101200004485546AA54BB528850995EEE5CFF5AC24
:10121000C58DD55336722611163006D776F66695EB
:1012200056B4465BB77AA719973887DFF7FEE79D74
:10123000D7BCC7C448E5588668A77840086118023B
:10124000282338CCC9EDD98EE9AFF9488969990AC4
:10125000A92BB9F55AD44AB77A966A711A500A334B
:101260003A122AFDDBDCCBBFFB9EEB799B588B3B14
:10127000BB1AABA66C877CE44CC55C222C033C609B
:101280000C411CAEED8FFDECCDCDDD2AAD0BBD6864
:101290008D499D977EB66ED55EF44E133E322E512B
:1012A0001E700E9FFFBEEFDDDFFCCF1BBF3AAF59B4
:1012B0009F788F8891A981CAB1EBA10CD12DC14E25
:1012C000F16FE18010A100C230E3200450254046B8
:1012D000706760B9839893FBA3DAB33DC31CD37FD7
:1012E000E35EF3B1029012F322D232354214527708
:1012F000625672EAB5CBA5A89589856EF54FE52CA7
:10130000D50DC5E234C324A0148104667447642457
:10131000540544DBA7FAB79987B8975FE77EF71DB6
:10132000C73CD7D326F2369106B0165766767615A7
:101330004634564CD96DC90EF92FE9C899E9898A06
:10134000B9ABA94458654806782768C018E10882F7
:1013500038A3287DCB5CDB3FEB1EFBF98BD89BBB16
:10136000AB9ABB754A545A376A167AF10AD01AB347
:101370002A923A2EFD0FED6CDD4DCDAABD8BADE866
:101380009DC98D267C076C645C454CA23C832CE097
:101390001CC10C1FEF3EFF5DCF7CDF9BAFBABFD9F6
:1013A0008FF89F176E367E554E745E932EB23ED1E7
:1013B0000EF01E7C3C3E5E2B3D3F2F5B5D3B2C2A9E
:1013C000225C00417061677565206C6120496D7019
:1013D0007265736F72610082FD82FE204F46460087
:1013E00080D580D6809B80D7809A809B006F7220AA
:1013F000737769746368206F666600436F6E656318
:101400007465206C6120616C696D656E74616369DF
:101410006F6E0082CE82FC2082E382E40080BA807C
:10142000D280AA80AB80D3809580D400436F6E6E4B
:101430006563742074686520506F776572003F3F64
:101440003F001F496D7072696D69720084B683A98F
:1014500084A70084B680AA80AB001F5072696E74A6
:1014600000496D7072696D697220646573646520EE
:10147000534400534482EB82EC83982084A883C7B2
:101480002082ED82EE2083A984A70080AA80AB533E
:1014900044809E80C180C280C3005072696E7420F7
:1014A00066726F6D20534420636172642E004D6537
:1014B0006E75207072696E636970616C0082FB8268
:1014C000F10080CF80D080D1004D61696E204D65E4
:1014D0006E7500436F6E65637461646F210082E313
:1014E00082E42082E582E60080B980BA80BB80BCBD
:1014F00000436F6E6E65637465642100426C7565B0
:10150000746F6F74680082E082E182E282D00080B2
:10151000B780B800426C75746F6F746800444553AF
:1015200043415254415200838082D0849A82D00039
:1015300080B580B6004449534D49535300496D70FE
:1015400072696D69656E646F2064657364652055AA
:101550005342005553422082DC82DD2083A984A7B8
:101560000080A680A755534280A880A980AA80AB9E
:101570002E2E2E005072696E74696E672077697422
:1015800068205553422E2E2E00737570706F727442
:1015900040647265616D6D616B65722E636300738B
:1015A0007570706F727440647265616D6D616B65AA
:1015B000722E636300737570706F7274406472652D
:1015C000616D6D616B65722E636300737570706F12
:1015D000727440647265616D6D616B65722E6363D8
:1015E00000436F6E746163746F3A0082D982DA824D
:1015F000DB0080A480A53A00436F6E746163743A87
:101600000054656D7020726564756E64616E7465FA
:101610000082D582D62082C482C52082D782D8009B
:1016200080A080A18088808980A280A30054656DFD
:101630007020526564756E64616E7400496E7465E5
:1016400072727570746F7220592061746173636176
:10165000646F00592082D082D182D22082D382D47A
:101660000059809780988099809A809B809E809F67
:1016700000592073776974636820737475636B0015
:10168000496E746572727570746F72205920726F32
:10169000746F00592082D082D182D22082CB82CC3A
:1016A0000059809780988099809A809B809C809D2B
:1016B0000059207377697463682062726F6B656E7E
:1016C00000496E746572727570746F722058206173
:1016D0007461736361646F00582082D082D182D2BA
:1016E0002082D382D40058809780988099809A80F5
:1016F0009B809E809F005820737769746368207375
:101700007475636B00496E746572727570746F7274
:10171000205820726F746F00582082D082D182D2FC
:101720002082CB82CC0058809780988099809A80C4
:101730009B809C809D005820737769746368206249
:10174000726F6B656E00496E746572727570746F3E
:1017500072205A20617461736361646F005A208241
:10176000D082D182D22082D382D4005A80978098AE
:101770008099809A809B809E809F005A2073776911
:1017800074636820737475636B00496E746572725C
:101790007570746F72205A20726F746F005A2082B5
:1017A000D082D182D22082CB82CC005A809780987E
:1017B0008099809A809B809C809D005A20737769D5
:1017C0007463682062726F6B656E00436972637543
:1017D00069746F20646520736567757269646164FC
:1017E0000082CD82CE2082CE82CF008093809480F2
:1017F000958096005361666574792063697263759C
:101800006974004572726F722064652063616C6553
:101810006E7461646F720082C982CA2082CB82CCEE
:10182000008090808B808F809180920048656174E9
:101830006572206572726F720053656E73207465F5
:101840006D7020506C617461666F726D610042450D
:101850004482C482C52082C782C800808B808C806D
:10186000888089808D808E808F0054656D70207394
:10187000656E736F72204245440054656D70204D53
:10188000696E0082C282C682C482C5008086808A58
:10189000808880890054656D70204D494D005465E5
:1018A0006D70204D616E0082C282C382C482C50009
:1018B00080868087808880890054656D70204D61A6
:1018C00078004572726F722D646574656E69646F1D
:1018D0000082BE82BF202D2082C082C10080808015
:1018E00081202D2080828083808480850045525213
:1018F0004F52202D2053544F505045440032320057
:101900000000000000C0C040404040404040404017
:1019100040404040404040404040404040404040C7
:1019200040404040404040404040C0C000000000B7
:1019300000000000000000FF000000000000C0C028
:10194000C0C0C0C0C0C0C0C0C0C0C0C0C0C0C0C097
:10195000C0C0E020E0C0C0000000000000FF0000A8
:10196000000000000000000000FF00000000000078
:1019700001010101010101010101018181810101D7
:10198000010101010302030101000000000000FF4A
:101990000000000000000000000000FF0000000048
:1019A000000007070707070707070707070F080FC4
:1019B00007070707070707070707070000000000DA
:1019C00000FF0000000000000000000000FF000019
:1019D000000000001C1C1C3E223E1C1C1C1C1C1C6D
:1019E0001C1C1C1C1C1C1C1C1C1C1C1C1C0000008B
:1019F000000000FF00000000000000000000001FC9
:101A000018101010101010101010101010101010CE
:101A100010101010101010101010101010101010C6
:101A200010101010181F000000000000000000003F
:101A300000000000000000000000000000000000A6
:101A40000000000000000000000000000000000096
:101A50000000000000000000000000000032320022
:101A600000000000E06020202020202020202020F6
:101A70002020202020202020202020202020202066
:101A800020202020202020202060E00000000000F6
:101A9000000000000000FF00000000000000000047
:101AA0000002060E1E3E7EFEFEFCF8F0E0C0800046
:101AB000000000000000000000000000FF00000027
:101AC0000000000000000000FF000000FEFCF8F035
:101AD000E0C0800000000000000001FFFFFFFFFFEA
:101AE000FF80000000000000000000000000FF0078
:101AF00000000000000000000000FF0000000001E6
:101B000003070F1F3F3F3F3F3F3F3F3F7FFFFFFF29
:101B1000FFFFFFFFFFFEFCF8F0E0C08000000000C8
:101B2000FF0000000000000000000000FF000000B7
:101B300000000000000000000000000000000000A5
:101B40000103070F1F3F7FFFF7E3C1E3F77F3F006C
:101B50000000FF00000000000000000000000F0C6B
:101B600008080808080808080808080808080808F5
:101B700008080808080808080808080808080808E5
:101B80000808080C0F000000000000000000000022
:101B90000000000000000000000000000000000045
:101BA0000000000000000000000000000000000035
:101BB00000000000000000000000000000323200C1
:101BC00000000000C0C04040404040404040404015
:101BD0004040404040404040404040404040404005
:101BE000404040404040404040C0C0000000000035
:101BF000000000000000FF000000000000000000E6
:101C0000008080808080808080FC808080808080D8
:101C1000808000000000000000000000FF000000C5
:101C20000000000000000000FF00000000000000B5
:101C300000000003FFFFFFFFFFFF01FF01FFFFFFA9
:101C4000FFFFFF0300000000000000000000FF0095
:101C500000000000000000000000FF000000000085
:101C6000000000000000000103070F1F387F381F2D
:101C70000F0703010000000000000000000000004A
:101C8000FF0000000000000000000000FF00000056
:101C9000E0E0E0E0C0F0FCFCFEFEFFFFFFFFFFFF26
:101CA000FFFFFFFFFFFEFEFCFCF0C0E0E0E0E00015
:101CB0000000FF00000000000000000000001F18EE
:101CC0001010111111111010101010101010101010
:101CD0001010101010101010101010101011111101
:101CE000111010181F00000000000000000000008C
:101CF00000000000000000000000000000000000E4
:101D000000000000000000000000000000000000D3
:101D1000000000000000000000000000008015002E
:101D20000000000080C0C0E0E0E0E0E0E0C0C08073
:101D30000000E0E0E0E0E0E00000E0E0E0E0E00003
:101D400000E0E0E0E0E0E0E0E0E0E0E0E00000E033
:101D5000E0E0E0E0E06060E0E0E0C080000000E0A3
:101D6000E0E0E0E0E0E0000000000000000080C0F3
:101D7000C0E0E0E0E0E0E0C0C080000000E0E0E0C3
:101D8000E0E0E06060E0E0E0C0800000E0E0E0E093
:101D9000E0E0E0E0E0E0C0C0800000000000000003
:101DA0000000001E7FFFFFFFE1C0C0E1FFFFFF7FDB
:101DB0001E0000030F3FFFFFFCF0FC3F0F0300007D
:101DC00000C0FFFFFFFFFFCCCCC0E1E1E10000C09D
:101DD000FFFFFFFFFFCC1C7FFFFFF7E3C00000C049
:101DE000FFFFFFFFFFC0C0C0F0F0F000001E7FFF4C
:101DF000FFFFE1C0C0E1FFFFFF7F1E0000C0FFFF4B
:101E0000FFFFFFCC1C7FFFFFF7E3C000C0FFFFFF19
:101E1000FFFFC0C0E1FFFFFF7F3E000000000000A9
:101E200000000000000000010101010101000000AC
:101E3000000000000000000101010000000000009F
:101E40000001010101010101010101010100000185
:101E50000101010101010000010101010100000176
:101E60000101010101010101010101000000000067
:101E70000001010101010100000000000001010159
:101E80000101010100000101010101000101010145
:101E900001010101010101000000000000000043F8
:101EA000414E43454C41520082FF82C60080D8809B
:101EB000D90043414E43454C00081C3E1C08000617
:101EC00009090610181C1810081838180800000016
:101ED000000000005F00000007000700147F147F6F
:101EE00014242A7F2A12231308646236495522508B
:101EF0000005030000001C2241000041221C0008D4
:101F00002A1C2A0808083E0808005030000008086B
:101F1000080808006060000020100804023E5149D3
:101F2000453E00427F400042615149462141454BB8
:101F3000311814127F1027454545393C4A4949302C
:101F400001710905033649494936064949291E00E8
:101F500036360000005636000000081422411414E2
:101F6000141414412214080002015109063249795F
:101F7000413E7E1111117E7F494949363E41414122
:101F8000227F4141221C7F494949417F09090101C2
:101F90003E414151327F0808087F00417F410020C7
:101FA00040413F017F081422417F404040407F0272
:101FB00004027F7F0408107F3E4141413E7F0909B2
:101FC00009063E4151215E7F091929464649494982
:101FD0003101017F01013F4040403F1F2040201F51
:101FE0007F2018207F6314081463030478040361BE
:101FF0005149454300007F414102040810204141FE
:102000007F000004020102044040404040000609F5
:10201000090620545454787F484444383844444492
:1020200020384444487F3854545418087E0901022B
:10203000081454543C7F0804047800447D40002078
:1020400040443D00007F10284400417F40007C0454
:102050001804787C0804047838444444387C141408
:102060001408081414187C7C0804040848545454B8
:1020700020043F4440203C4040207C1C2040201C49
:102080003C4030403C44281028440C5050503C44C4
:1020900064544C44000836410000007F00000041B9
:1020A00036080008082A1C08081C2A080894F3921D
:1020B00000D2525F52525FD20000070400070505AC
:1020C000050505070009FA0080AFA9A9E9A9AF80B5
:1020D0000004070200040402010204040010FC03CF
:1020E0000062AEAAABAAAE620000070000000404C2
:1020F000070000000000FC000000FF10101010009E
:102100000004070404040704040404040011F2009A
:10211000088969190909C9080004030405050505AA
:10212000050504050084E3180010111111F11110C8
:102130000000070000000004040700000010FF5525
:1021400055F515D555555FD0000203010107000470
:102150000502050400040404C4340F34C404040458
:1021600000040201000000000001020400099200C6
:102170009F95959595959F00000403040704070417
:10218000070407040000FE0A8ABEAAABAABE8A0A98
:1021900000060100040502020202050400C0380026
:1021A0000000FF00000038C0000000000404070029
:1021B000000000000092FF0A806A1E63827E807029
:1021C0000004020002040002040002040000FE02F7
:1021D00022E222FB22E222020006010403000007A1
:1021E000000003040010FC031052725E535252D2DE
:1021F00000000700000000010206010000FE02EAE4
:10220000AAAAEA029F629BC2000402000605040417
:102210000600020400A0AFE9A9AF30AFA9E9AFA062
:102220000000070404070007040407000004847F7B
:102230000404FC00FE0202FE000601000404070084
:102240000302020300C4447F44C4201867847C0452
:1022500000070404040700040201020400FF011146
:10226000EF08FAAEABAEFA08000700010102020265
:1022700007020202001692D2B29A1312927212163A
:10228000000404040202010102020404000808948C
:102290009492F1929494080800040404040407043E
:1022A0000404040400FE121212FF12121212FE00A5
:1022B0000001010101070505050505060009920059
:1022C00012D21AD712D20A12000403000403000328
:1022D00000070407008464FF2444004445FE44448E
:1022E00000000007000000040407040400FF11EFD1
:1022F00000FF4949C9497F000007010104070402A2
:10230000000102050010FC0300021AE20302FA02B7
:102310000000070000040405040704040000212154
:10232000FF21212121FF21210000040300000000E2
:10233000000700000040444546C47CC44645444074
:102340000004040201000000010204040044FF2410
:1023500000F71515D51515F7000407000005040250
:1023600001020405000808FF08412111FD03116165
:10237000000202030100000007000000001010101E
:102380001010FF529292121000000000000007008F
:10239000000001010010FC0300444445FE44444495
:1023A00000000700000404040704040400FE02FE09
:1023B00000EA3E2AAF2A3EEA0001010100050402BC
:1023C0000102040500FE02FE48EE585FDA507FCAA3
:1023D0000001010104030101010105070010FC03D4
:1023E0000020EF29F929EF2000000700000201007A
:1023F000070001020044FF2400FC24252624243C7D
:102400000004070006010000000000000001FF2991
:10241000FF2425A67CA62524000201010704020151
:10242000000102040040426A6A56D24A494531C05E
:102430000002020100000700000102020010FC037C
:10244000007A4A4AFF4A4A7A00000700000405025F
:1024500005040404000000FF494949FF494949FFB8
:1024600000000601000000070000040700DE5252D1
:102470005252FF52525252DE00030202020207027F
:10248000020202030000FE0202020202020202FE37
:10249000000003020202020202020203004444FF9F
:1024A0002404020202FE02020000040700000004ED
:1024B0000407000000FE1212111100FF010101FFCC
:1024C00000010101010100070001010100EF09F90C
:1024D0004F4224FF00FF24420007040702040201C8
:1024E000000704070011F2000414640404FF04044C
:1024F0000004030404040405050504040001F101BB
:102500000101FF2121212121000407040404070403
:1025100004040404008242E21A474242F242424268
:102520000000000700040404070404040000FE1275
:10253000D2525352525252DE0006010007040404E4
:1025400004040407001012F212921004FF0404FCA9
:102550000004070404030406010004070009FA004C
:102560000022EAAABFAAEA2200040702000007022A
:102570000202070000A4ABAAAEAABCABAAEEAAA2B4
:102580000000000102000004040700000044F30CF6
:1025900050D2525F5252F25000000700000001007A
:1025A00004040700000827120E22920E42427E0009
:1025B00000040300070404050406010600FE22FED1
:1025C00022FE44AB9292AA460003020302030007D4
:1025D00004040700007A027A0722121A37521212F4
:1025E0000004070505070507050507040010101F6F
:1025F0001191513111FF111100020201010000047B
:10260000040700000011F200929A96FB9292920049
:102610000004030404040405040404040044FF2427
:1026200000525ED27352DE5200040700000405021D
:10263000020304040000FC4444C4041FE405E6044F
:10264000000601000407000004030403000202FE68
:1026500002020404FF0404FC00020203010104035B
:1026600000000407001A62827E0807827A82020E46
:102670000004020102040201000102040011F280C0
:10268000FE824100FF0181FF0004030404040404EE
:10269000070404040010FC0300847C04FF047C8411
:1026A000000007000001000107010001003D21BFFB
:1026B000E0085492519214C8000105040700040573
:1026C0000405050400FC84848484FF84848484FCE1
:1026D0000000000000000700000000000064FF246C
:1026E00082FAAFAAAAAFFA8200000700040402012E
:1026F0000102040400299F8989BFC9809E80A03FF0
:1027000000040404040407040404040400CCAA998B
:102710004404FF9292FF9292000404040200070412
:10272000040704040010FC03F80014574A2A96100A
:1027300000000700030000050505040200CCBB886B
:1027400000FF00D610FF10D60004040200070404A6
:102750000405040400CCBB8800AADAAAFF8A8A9A7E
:10276000000404020004020100010204004222FAF3
:10277000575252525252F202000000070101010169
:102780000505070000101010101010101010101088
:102790000000000000000000000000000010100811
:1027A0000402E1020408101000000000000007000D
:1027B00000000000004141211109FD0311112141D8
:1027C000000000000000070000000000000E82BBB7
:1027D000AAAAEBAAAABB820E000003000000070011
:1027E00000020300000884BE81AAAAAABFAAAAAA5E
:1027F0000000070404040404040404070000FE129B
:1028000092929292929191100006010007040404A2
:1028100004040700000444444445FE444444440482
:102820000004040404040704040404040092B2D263
:1028300097B2D29297CAAA8200040402010007004C
:102840000102040400007C555654FC5456557C008B
:102850000001010101010701010101010000000067
:102860000000FF101010100000040404040407040A
:1028700004040404008464FF2400FF0101FF0080BD
:10288000000000070006010000070407000992008D
:10289000FF017D55D7557D010004030403040304A3
:1028A0000700030400027A4A4A4A7A02FF02C3324E
:1028B000000202020201010402030403009092D20A
:1028C00052725F525258D4120000000705050505E8
:1028D000050507000044FF2400F8A8AFAAAAAAFA39
:1028E0000004070002020202070202020001FF299F
:1028F00029FF011A6282621E000203010103000423
:102900000201020400099200F9AAA8A8AFA8AAF936
:10291000000403000700000000040407005F555195
:10292000FF55515F08FF080A000501050105010573
:10293000030003040009FA00000000E01FE00000AB
:102940000004070200040300000003040011F20069
:102950002424FF2424FF2424000403040405040485
:102960000405040400000001C1310F30C000000064
:10297000000402010000000000010204008242E3A2
:1029800052AE0101FF0101FF000000070000040337
:102990000004040700047F847C00D05C53504CD0BA
:1029A0000004020106000704040404070009FA00F9
:1029B0000068AF212121AF6800040702000404056C
:1029C0000205040400D715D557557D555755D51721
:1029D0000007040705050505050507040022FF1289
:1029E0000096F29A13927216000407000404020281
:1029F000010202040001010101FF0109112141014D
:102A00000000000000070000000000000094F392A6
:102A100034EC88AAFFAABE080000070405030204DC
:102A2000070404040044FF24005F5555D555555F45
:102A300000040700000403040705050500109111B8
:102A40001111F1111111911000020100040407008D
:102A50000000010200419915F3045555FF555F042C
:102A60000004020102050505070505050009FA0035
:102A7000000E304186601E000004070204040201BB
:102A800001020404001111FF11002111FD03116165
:102A90000002020301000000070000000008FF0818
:102AA0000AFAAEABAAAEFA0A00020301040403005C
:102AB0000007040600D45352564ACA4A4A5652D214
:102AC0000007050505050705050505070010121493
:102AD00011D230DF101010100004040201000000B9
:102AE0000102040400404445FE444444FE45444081
:102AF000000004020100000007000000003A27FA6D
:102B0000220403C23AC2020E0001010701040201BD
:102B100000010204002010FC030000FF10100884D4
:102B20000000000700000007040404070000FF0184
:102B3000A9A9BDA9A9A901FF00060100030202027B
:102B40000203040700FF01555555FF5555D501FFF8
:102B500000070404040407040505040700215F8935
:102B600079012A2AFF2AAB2A00040201000004048A
:102B700002030406004848444C4AF94A4C44484879
:102B800000020201040407000001020200FC4446A6
:102B900045FC001827C404FC0007040404070000D7
:102BA00000040407008464FF244400846414FF04C8
:102BB0000000000700020100040407000016D0FF17
:102BC000509600122480FF40000100070000000121
:102BD00001000700004848444CCA494A4CC44848D0
:102BE00000000406050404020202010600FF11EFC2
:102BF0000024A7AAD2AAA62000070101000203020E
:102C00000702020200322FF22222005151C955530D
:102C100000010107010100040407040400FCABFAF1
:102C2000AEF8007C44FF447C000700000407000469
:102C300004070207004145594141FF4141514D41BF
:102C40000000000000000700000000000010D05845
:102C500054535048484AC4180000070404040404AC
:102C60000404070000404A52C242FF42C2524A4096
:102C70000002020100000700000102020064FF24BC
:102C800000126A8203826A12000007000004040234
:102C9000010204040001C610FCA7A4A4FEA5A4A47C
:102CA000000601000704040407040404002020BEF9
:102CB000A020FF242424A42000010504040405040A
:102CC000020201000002CCFF00465A465A42F14D72
:102CD0000003000700000102000407000001FAA839
:102CE000AFA8FA0100FE00FF000007000004070083
:102CF00000050407004846404048EF404040464831
:102D0000000404020201000102020404002AAAFFD6
:102D1000AA2A009292FE494900020107010200001E
:102D2000000704070044FF2408CA2A0AFE0A49C90A
:102D30000004070000070504070405070080BFA57D
:102D4000A5A5A5A5E5A5A7B0000000010200000407
:102D500007000000003C0BFEAAAAACABAABE8A3A50
:102D6000000000070404040404040700000CF51626
:102D70001415D6141416F50C000404040201000303
:102D80000404040600494D4BF949454900FE00FF83
:102D90000004040407020202000504070084FF4443
:102DA0000022E62A132AE62200040700000601009A
:102DB0000000070000DE10101010FF10101010DED1
:102DC0000007040404040704040404070010D01ED0
:102DD00010907F921212D21000000705050404041F
:102DE0000505070000322EF32212E88483444810C0
:102DF00000010107010107040404040700FE0202A8
:102E0000FE225A8203825A220003020203040402B1
:102E10000102040400088894949291929494880882
:102E200000000704040404040404070000909196C1
:102E300090909F90909493F0000404040404040480
:102E400004040407000A92629E003F8179013F005A
:102E50000002010005040201070404070056725A2B
:102E60002A5A434A122A3A2600040503010507019B
:102E700001030500000000E01FE000E01FE000008B
:102E800000040300000403000000030400FC24FF0E
:102E900024FC91492D9B49F8000101070101020220
:102EA000010404070008FF0810FE1008FF08447C16
:102EB00000020301000704040404040700FE0202E8
:102EC000FE000808FF0808000003020203040404CF
:102ED000070404040004FF04C43C002121F9252355
:102EE00000040201020400000407000000000101C8
:102EF000010101E1110905030000000000040407BD
:102F00000000000000FE02FE00FF21213F21213FC2
:102F100000010101000704040404040700FF11EF8D
:102F20000013F00AFEABAAFA000701010004030433
:102F30000504040500FD453F4545FD00F111119FC5
:102F40000007050505050700070404070011F20046
:102F500024A5663C66A524000004030405040404BB
:102F6000040405040009FA0000DAAA8AEF8A8A9AA2
:102F70000004070200040402010204040011F2002C
:102F80001413F21F12F21290000403040505040446
:102F9000040505050044FF2400535549E9495553EC
:102FA00000040700000101010701010100415D5516
:102FB000D57F555F55D55D41000404050502020229
:102FC000050404040008976A320E0044340F3445A7
:102FD0000004020001060001060001060044FF840F
:102FE000FC8685FD8587FC8000040704040202013D
:102FF000020204040001FD555555FF5555557D014C
:103000000004040502020504040404000009FA0097
:1030100000FF11D55FD511FF000407020007000370
:10302000020304070008047E412413427E02126654
:1030300000040300070405060406010600221A7FA7
:103040008A32807F5555557F00040300070404052C
:10305000040601060000FE92929393929292FE0063
:10306000000007040404040404040700000ACAFF63
:1030700049A0AFA9E9A9AFA000010007000404041A
:10308000070404040000FE424A4A5AEB6A5A4AC244
:1030900000060100000004070000010000FE02FE1F
:1030A00000213D2121213FE000010101000101013A
:1030B00005050407008092929292FE929191908071
:1030C0000000000004040700000000000000FE00F3
:1030D000FF101000FF10088400040704070202001C
:1030E000070404070010FC0300919690FF9094934E
:1030F00000000700000000000700000000099244E3
:10310000748566044675846400040304060506009D
:10311000040605060002EAAAAAAAEFAAAAAAEA02D7
:1031200000040300000000000000000000FE020296
:10313000F3131212F20202FE000700000101010166
:10314000010404070002121217F212121712F202FF
:1031500000000000000700010101010000809897B5
:103160009292929292F28280000000000004040485
:103170000403000000CF09F9494F00FF898989F94C
:103180000007040702020007040404040082BAA234
:10319000B6EAABAAB6A2BA82000700020302020294
:1031A000010604070011F20004C4340F34C4040003
:1031B0000004030405040404040405040011FF11C1
:1031C000007F4949FF49497F0002030104050505C5
:1031D0000705050500124A836A12000877847C04FB
:1031E00000040201020400040201020400405F55D1
:1031F000D555FF55D5555F4000020201000007007C
:10320000000102020044FF2400B8AFBDC5BDAFB845
:103210000004070000040201070102040010FC037F
:10322000100C03FE9292929200000700000000072B
:1032300000000000002021212121FF212121212047
:10324000000000000404070000000000000404C4A3
:103250003C04FF043CC40404000201000101070116
:10326000010001020011F200807F093949894939C2
:1032700000040304050404050504050500FF01011D
:10328000F9898989F90101FF000704040404040491
:103290000404040700CCBB8801FF8111199770005A
:1032A0000004040206010405020504040000FF01F5
:1032B0000991619D01FF00800006010001000003EB
:1032C000000304030001FD55D555D51555D555DD31
:1032D000000601020205070002020507003A27FA6C
:1032E000220052725F52D25000010107010000011A
:1032F000020500000011F2003AEA2AFF2AEA3A0029
:1033000000040304050404050404050400E2222E5D
:10331000AAAAABAAAA2E22E2000700000302020218
:10332000030404070010FC0300FE12127E921191A8
:103330000000070001050505040502010020242402
:10334000E424FF24E42424200002020100000700FA
:1033500000010202002F22FE222200FE020202FED3
:10336000000403000106000302020203000403BE7E
:10337000EAAAAAAAAAAABE820002010405020202BF
:10338000020205040011F20000FF153555955F207B
:10339000000403040505050504040505007C00FF81
:1033A00004705F755575DF700000000700040405A8
:1033B0000205040400CCBB8826FA02EBAABAAAEEE6
:1033C00000040402000700070404040700C4FF44CB
:1033D00004D412D11112D40400000700040405041F
:1033E0000506050400099200FF01F9FF00FE00FF39
:1033F00000040300040201060005040700F456550A
:103400005452F400DF9292590007010101050700B0
:103410000704040600F9021011915131FD1101FF5A
:10342000000700010100040407000407001010FF5A
:10343000105494121211101000000007040400012F
:1034400002020404003800FF0812FF1222FA2212BE
:103450000000000700060104030003040000FF0150
:10346000010101010101010100060100000000004D
:10347000000000000002CCFF000808C83FC8090A8D
:103480000003000700040300000003040022A2124E
:103490008A16A3060A12A2220004030007040405E8
:1034A0000407000700FF01C949497D4949C901FFD7
:1034B0000007040505050505050504070010FC03C4
:1034C00048474444FF444444000007000000000013
:1034D000070000000000FF48CF0800FF1969897944
:1034E00000040300070006010006010600CCBB88AB
:1034F00000FD55D555D555DD000404020007010730
:103500000107010700202FE9A9A9A9A9A9A9AF20AE
:10351000000000000000040404040700004E424ABA
:10352000CA4A4B4ACA4A424E000404020100000043
:10353000070404070009920010FE1008FF08447CED
:1035400000040300000704040404040700222232DC
:10355000AE222322A2160A12000404020100000077
:103560000704040700099200EA2AFF2A2AFF2AEA30
:103570000004030007010001010005070010FF55CA
:103580005555F5555555FF1000040505050507056A
:103590000505050400A2AAAAEABFAAAAAAEAAAA245
:1035A0000002020100020000040700000008E824F5
:1035B0002CEA09EA2C24E8080000030202030007B1
:1035C0000002030000FE2222FE0024C404FF0404C3
:1035D00000030202030000040407000000F90200D7
:1035E000F9494949F90101FF0007000003020202FD
:1035F000030404070022AEB2A3B2AE22FF0119E712
:1036000000000704040407000701010000CCBB8888
:1036100000D252525F5252D2000404020007040446
:103620000404040700027A4ACA4AFF4ACA4A7A02D4
:103630000002020100000700000102020042F32E16
:103640005000FE52921F927600000700000601040F
:1036500002010204008464FF4490482784C404FCEF
:1036600000000007000101010005040700201867A1
:103670008242320E00FF102000040201000102020B
:1036800004050404008A6AFF294824AB524A46C054
:1036900000000007000005040502010000824A1234
:1036A000426AD76A42124A82000101010101070100
:1036B0000101010100909456355C34943452949089
:1036C0000000000005050504020100000095CCBFC4
:1036D0008C95201867847C0400040502050400040E
:1036E000020102040042E21A86939292D2B29282BE
:1036F00000000700000000040700000000008888A8
:10370000D4536262524A46C0000000000704040419
:1037100004040407000ACAFE498910EF02FA02E60F
:1037200000010007000000010407000100CCBB8875
:103730002424243FE425A6240004040200040404F5
:10374000020304020044F30C0021A395C995A320B1
:103750000000070000040404070404040044FF24DC
:103760000008087F88690A080004070000040402B2
:10377000010204030001F989898989F90101FF0126
:103780000000000000000004040407000009FA0023
:10379000003FA1212121A13F0004070200060100F2
:1037A00000000106002F29F92929EF00FE0000FF83
:1037B0000004030004040700010404070004041CBF
:1037C00024448744241C0404000404020201000170
:1037D00002020404000E12D21212F3929292920E7E
:1037E00000040201020407040404040400000F3072
:1037F0004081068040300F000004040402020102F0
:103800000204040400F212121E00087C87847C0467
:10381000000302020304040201010204003A27F239
:10382000A2F45454FF5455F40001010700070101AC
:10383000070105070000FF4949FF0404FF0404FCD9
:1038400000040704020304030000040700040586C3
:103850007C070424C40404FC0000040300000000EE
:1038600000040407001115F9153300FD05F705FDE7
:103870000004040700000005020102050001C61053
:103880000F02827A8202120E000601040402010075
:103890000102040400FF24A8FFA824FE1212F11163
:1038A000000705040704050300000700001495D570
:1038B000755AF2525555D515000100030000070056
:1038C0000202030000425E535252E05F5555557F9D
:1038D0000004050505050705050505040040424AE5
:1038E00052C27FC2524A424000040402010000005A
:1038F0000102040400FF0111EF0202FE232222E272
:103900000007000101000601000404070000C7458C
:10391000457F55575555D710000101010101070199
:10392000010101010009920068AF21212121AF6846
:103930000004030004040502020504040010FC0353
:1039400020222222FE21212000000700000404047E
:10395000070404040010FC0300F98989F901FF0140
:1039600000000700000000000404070000F20D172B
:10397000F417F417207F847C00070004030007027B
:1039800000060106002AAE7B2A2A403E0A7A8909EF
:10399000000007050505050505050700008464FF0F
:1039A0002400FF29C909C9390000000700060104E5
:1039B000020102040044FF24D058545350504CD00C
:1039C0000004070007040404040404070021FF099D
:1039D000F900FE95FD9597FC000003020304030027
:1039E0000700040700080E8878AF2828292AE8086D
:1039F00000040205040405020205040400184744FB
:103A00004444FF44444444040004040404040704FC
:103A10000404040400F921212121212121213F0056
:103A200000070404040404040404040600CCBB8856
:103A300000A1A1918995A3A100040402000404043B
:103A4000070404040000FF0000039C0000807F00C6
:103A50000004030202010404020102040020908F0A
:103A600090A0FFA0908F9020000404040404070499
:103A700004040404008464FF24896909F90969893C
:103A80000000000700010004070000010011FF1101
:103A90001100FF01F901FF0000020301010402010E
:103AA0000007040600FF0181611F0101FF8181E120
:103AB0000007040404040404040404040000FF09CF
:103AC0002929494909F90F000006010001010202F4
:103AD0000400030400099220EAAAAABFAAAAEA20C5
:103AE000000403000702020202020700000009921C
:103AF00000A4A4A4BFA4A4A4000004030007040419
:103B0000040404070000FF49494949494949FF00A5
:103B10000004070404040404040407040002FAAACD
:103B2000AAAAAFAAAAAAFA02000407040404040479
:103B30000404070400F9020001010101010101FF71
:103B40000007000000000000000404070010FC0350
:103B50000455555555555504000007000007050547
:103B6000050507000000FEAAAAABAAAAAAAAFE00A1
:103B70000004020007040506040600060000FF49D1
:103B8000497F0000FF0101FF000407040403060051
:103B900007000101004E52664A42FF424242424E35
:103BA000000404020201000102020404007C00FF80
:103BB000004E4444FF444444000000070004040451
:103BC0000704040400405F555555D55555555F40D1
:103BD000000403020404070505050504001191898A
:103BE0008985BD83898991110000070404040404B8
:103BF00004040700005D45555545DF455555455DB5
:103C00000007010107010101070105070009FA008A
:103C100000042526FC2625040004070200010101FA
:103C20000701010100CCBB8800FF2121FF2121FFFA
:103C300000040402000704040704040700444F4A78
:103C40004E535E54574A56520000070505050505B8
:103C5000050507000014D35252525F525252D2103F
:103C6000000007040404040404040700003D21BF0D
:103C7000E051DF55FF2991AF00010504070502055A
:103C8000070102040005E9213F2121213F212925C7
:103C9000000601000000000000000000008464FF36
:103CA0002448C4AB92AAC6400000000700000704E5
:103CB0000404070000FF8989FF00E9A9A7A1A9EF73
:103CC000000402000204000204000204000000FCE0
:103CD000242425262424243C0000060100000000A2
:103CE000000000000020FF2121FF20FF2121FF20F4
:103CF0000004030004070007000407000011F2009D
:103D0000F9A9ABFDADABF9000004030405040405FB
:103D1000040405040011F20002FAABAEAAABFA02E9
:103D200000040304040704040404070400D212FF7F
:103D3000929200E9272129EF0007010304040405FA
:103D400005050505001011967010FF1070941310F2
:103D5000000201000000070000000102001191991B
:103D60009593F191919589110004040404040704CA
:103D7000040404040044FF2400DF5252525251D97B
:103D800000040700000705050505050700CAFF49EF
:103D900000F9AAA8AFA8AAF90000070000070000D0
:103DA0000004040700047D555555FF5555557D0405
:103DB0000004050505050705050505040044FF2465
:103DC0000004C43FD414D5340004070002010004E9
:103DD00002010204007A0A1A2B4A7A023B02427A52
:103DE00000050505050301010505050700404444DC
:103DF000C4447F44444444400000040605040404D1
:103E00000403040000124AC27E4243427EC24A12A8
:103E10000004040405020202050404040021FF2139
:103E200021FF210044221188000601000007000044
:103E3000040201000044FF2408FCA7A4FCA7A4A4DA
:103E4000000407000007040407040404008A4AEA87
:103E50001F8AAEAAAFEA8A8A0000000700000004A9
:103E60000700000000FF81413F0101017F4141FF48
:103E70000007040404040404040404070000788414
:103E800084781012FE01FF00000000000000000016
:103E900003000700000012F212121E001011FF00B2
:103EA00000000001010101010100070000002028BD
:103EB00029A9A5E5A729282000000000030404047F
:103EC000040300000000023E222222222011FF08EB
:103ED0000800000001070404040404000000404836
:103EE0002AAA3A484001FF0000000202020302022F
:103EF00002020700000004FC84848042FE21FF00CF
:103F00000000000000000000030007000000404027
:103F1000464949794946404000000001070404042D
:103F200004040400000000023E2222E222220000DB
:103F3000000002020202020302020202000000204C
:103F400020100ACE1010200000000202020202031C
:103F500002020202000020100A360809FF00FF00DA
:103F60000000000001070404040404000000804075
:103F7000322E40901011FF000000000000000000F1
:103F800000000700000008C82A2A2AC80801FF000C
:103F9000000000000101010000000700000002FE17
:103FA000121212021011FF000000000101010101B4
:103FB00001000700000000000202E20202827E000F
:103FC000000002020202030202020202000020229A
:103FD000120A96A280813F08080000000003040432
:103FE0000404030000001C2222221C000001FF0820
:103FF000080000000107040404040400000020225B
:10400000120A162A0809FF00000000000107040434
:10401000040404000000808ABAAAAAAAAAAE80807A
:104020000000000000070000000700000000002062
:1040300020100A0E101020000000020202020202EC
:10404000020202020000404C52D2524C4041FF009A
:1040500000000000000300000000070000000084D2
:1040600045352D448001FF000000010000000000E4
:10407000000007000000202252524A4E4849DF004B
:104080000000000001070505050505000000053DCD
:10409000A5A5A7A0A091BF00000000000007040490
:1040A00004040700000000023E2020E02020200041
:1040B0000000020202020203020202020000105487
:1040C0005555555353D5141000000001070505053B
:1040D00005050000000000027E4848C84A7E000036
:1040E00000000202020202030202020200000004B7
:1040F00004344DC54D3404040000020202020203E0
:10410000020202020000202025253D2525352F2012
:104110000000000107040404040400000000013F43
:10412000A5A5A091BF88BF0000000000000000000E
:1041300000000700000000027E4A4A4A4A4A000086
:10414000000002020202020202020202000080805B
:1041500040322E408001FF202000000000000000BF
:10416000000007000000202026B9A9A9B9262020B8
:1041700000000000030404040403000000000042E7
:104180004A7242426A5A42000000020202020202DD
:10419000020202020000053D252527202001FF0024
:1041A0000000000001070404040404000000105192
:1041B0005F5A5A5A5ADF1010000000010705050522
:1041C000050500000000808ABAAAAAAAAAAE8080CB
:1041D00000000000000000070000000000008082D6
:1041E000BEAAAAAAAAAA80800000000000000007B8
:1041F0000000000000001C2222221C141415FF00E5
:104200000000000001070404040404000000202250
:1042100052524A565455DF000000000001070505C0
:1042200005050500000020100D0B90A484853F00BB
:104230000000000000030404040403000000202028
:1042400021A1BDA1A129272000000000030404042E
:104250000403000000001C22A2A29C808081BF00F9
:104260000000000000000000000007000000828A3B
:10427000F282CABA8201FF000000000000000000C4
:1042800000000700000012F212121E008081FF00E1
:1042900000000001010101010000070000001C22D4
:1042A00022221C080809FF00000000000107040486
:1042B00004040400000000129252320E0001FF209C
:1042C00020000101000000000000070000000002C3
:1042D0003E222222222200000000020202020202EA
:1042E00002020202000000023E2222E2223E000000
:1042F0000000020202020203020202020000011F89
:10430000515154455F40DF000000000001070505E2
:10431000050505000000404A2A2A1A0E0809FF0078
:10432000000000000107040404040400000002FE71
:10433000121212028081FF00000000010101010140
:1043400000000700000080829E90909090909080E6
:10435000000000000007000000070000000000024D
:104360000202020202827E00000002020202020237
:1043700002030202000008C82A2A2AC80801FF20F6
:10438000200000000101010000000700000002FE03
:10439000808080804041FF2020000000000000005D
:1043A000000007000000001C2222221C0001FF0068
:1043B0000000010101010101010107000000011FCE
:1043C0005454555F4041DF0808000000010705050F
:1043D00005050500002020100D13A081BF887F0077
:1043E0000000000000030404040403000000053D75
:1043F000A5A5A7A09091BF0808000000000000003C
:104400000000070000000080645CA022FE01FF00A5
:104410000000010000000000030007000000000091
:104420001CE22222E21C000000000202020302023F
:10443000030202020004FC8484FC1012FE01FF004F
:10444000000000000000000003000700000020261C
:1044500029E929A6A081FF0000000000010704044B
:1044600004040500000000023E2222FE2222220057
:1044700000000202020202030202020200002021E6
:1044800027242424242420200000000107040404FD
:10449000040400000000A0A495959DA4A081FF0045
:1044A000000000000007000000000700000002FEFE
:1044B000828282824041FF00000000000000000074
:1044C000000007000000105555575D5557D51510D1
:1044D000000000010705050505050000000000407B
:1044E00048482A9A2A2848000000020202020203D1
:1044F00002020202000000028242320E0001FF00AE
:104500000000010100000000000007000000101082
:1045100048454B504445DF000000000001070505F9
:104520000505050000002022120A96A888893F0090
:10453000000000000003040404040300000002FE65
:10454000909092FE1011FF0000000000000000009B
:1045500000000700000040415F555555555540404B
:1045600000000001070404040404000000001050CF
:104570005555555555DD1710000000010705050577
:10458000050500000000053DA5A5A7A0A091BF005E
:10459000000000000000000000000700000024E40C
:1045A000243C0022FE01FF00000000010101010087
:1045B00003000700000000121212F21212927E0095
:1045C00000000202020203020202020200023E2274
:1045D000223E0809FF00FF0000000000010704045C
:1045E000040404000000424A5673564A4241FF1038
:1045F000100000000107040404040400000020224D
:1046000012128A9694953F000000000000030404F3
:1046100004040300000002FE909092FE0001FF00DF
:104620000000000000000000000007000000000281
:104630008242320E0001FF20200001010000000034
:104640000000070000000C1252524C4A4A4ADF0098
:104650000000000001070505050505000000809029
:1046600092928A8A8E9290800000000000000007DB
:10467000000000000000023E28282A3E1415FF001A
:1046800000000000010704040404040000002022CC
:10469000120A16220001FF080800000001070404A6
:1046A0000404040000007C8282827C242425FF0014
:1046B00000000000000000000000070000808444AB
:1046C000344C8002FE21FF000000000000000000CA
:1046D000030007000000000A7ACA4A4ACA4E400096
:1046E000000002020203020203020202000010554F
:1046F0005D55555555D710100000000107050505FB
:1047000005050000000004344DC54D340401FF20B0
:104710002000020202030202020207000000808061
:1047200040322E408001FF00000000000000000029
:10473000000007000000202AAA9A0A060001BF0014
:10474000000000000007050505050700000002FE47
:10475000808080804041FF000000000000000000D9
:1047600000000700000002FE828282828041FF205A
:1047700020000000000000000000070000002020D2
:10478000262929E929262020000000010704040425
:10479000040404000000023E22E222220001FF0085
:1047A0000000010101010101010107000000023EBA
:1047B0002222223E1415FF0000000000010704041D
:1047C0000404040000002022928A96A28081BF087F
:1047D00008000000000000000000070000001C228C
:1047E000A2A21C080809BF00000000000007050580
:1047F000050507000000021E1212525E40013F0034
:104800000000000005050503050505000000000285
:10481000E20202E202827E000000020203020203C0
:1048200002020202000020A0A6A9A9A9A9A6202090
:10483000000000000704040404070000000020201A
:10484000908D0B102001BF0808000000000705052F
:104850000505070000001C22A2A21C000001BF00E9
:1048600000000000000705050505070000001C22E8
:10487000A2A21C000001BF080800000000070505F7
:10488000050507000000105A5A5653765ADA1010E0
:1048900000000001070505050505000000001117CF
:1048A000555D55555051DF0000000000010705051A
:1048B00005050500000004FC84FC8482FE21FF0045
:1048C000000000000000000003000700000080421C
:1048D00022122A468001FF000000000000000000B4
:1048E000000007000000424A5673564A4240FF0843
:1048F000080000000107050505050500000000048B
:1049000084643C22FE01FF00000001010000000061
:1049100003000700000010505255555D55D210108D
:10492000000000010705050505050000000008C896
:104930002A2AC80AFE21FF00000000000101000031
:1049400003000700004040201A1620480809FF0015
:104950000000000001070404040404000000808437
:1049600094ACA5A5AC948480000000000000000772
:1049700000000000000000001C222222221C000077
:104980000000020202020202020202020000000A09
:104990007A4A4ACA4A4E400000000202020202035A
:1049A00002020202000000886ADA2822FE01FF00EB
:1049B00000000100000100000300070000001C22AD
:1049C00022221C000001FF00000000000107040477
:1049D00004040400000080A0A0908A8E9090A08023
:1049E0000000000000000007000000000000222678
:1049F0003A22BEA294953F00000000000003040488
:104A00000404030000000020221212CA0E1220002B
:104A10000000020202020203020202020000808081
:104A20008C929292928C808000000000000700001F
:104A3000000700000000804222122A468001FF2069
:104A400020000000000000000000070000002021FE
:104A50002FA9A9B9A92920200000000003040404FB
:104A6000040300000000053DA5A7A091BF88BF007A
:104A700000000000000704040404070000001050B8
:104A80005255555555D21010000000010705050577
:104A900005050000000004344D4D34057F087F00FB
:104AA00000000000020505050505020000002022A7
:104AB000120A8E093F803F00000000040402010634
:104AC00002010204000020A8A824252324A42820F1
:104AD00000000000070505050507000000008262D0
:104AE0001E82621E0001FF20200000000100000065
:104AF0000000070000002028292925E52729282073
:104B00000000000107040404040400000000001C6D
:104B100022E2221C0001FF2020000101010101010D
:104B200001010700000002FE828282FE0001FF20D8
:104B30002000000000000000000007000000023E0E
:104B40002222BEA2A2913F08080000000003040434
:104B500004040300000004344D454D340401FF08F3
:104B6000080000000107040404040400000000021F
:104B70008242321E1011FF000000010100000000FF
:104B80000000070000007C8282827C000001FF00A0
:104B900000000000000000000000070000002020CE
:104BA000100D8B90A0813F08080000000003040452
:104BB0000404030000002022928A96A88889BF007E
:104BC00000000000000000000000070000000004DA
:104BD00004B44D454DB40404000002020203020275
:104BE0000203020200000002F202423E0001FF2026
:104BF0002000010101010101010107000000021E66
:104C0000525252525049DF080800000001070505C2
:104C1000050505000000020A5653564A4241DF08C6
:104C200008000000010705050505050000001C221D
:104C300022229C0000813F000000000404020106C3
:104C4000020102040000101149454B504445DF00A9
:104C50000000000001070505050505000000223ED3
:104C6000223E2221FF08FF0000000000010704048B
:104C70000404040000002028A8A4A5B3A4A42820AC
:104C800000000000000000000007000000202010CD
:104C90000D13A8893F007F000000000404020201F8
:104CA00002020404000080A0A4A4958D9594A48021
:104CB000000000000000000700000000000080422B
:104CC00022122A569011FF00000000000000000090
:104CD000000007000000405054544DC54D54504052
:104CE0000000000001010101010700000000405028
:104CF00054544D454D545040000000000101010145
:104D0000010700000000202127A4A4A4A42420203F
:104D1000000000000304040404030000000020223B
:104D200052524A464041FF000000000001070505BD
:104D300005050500000004FC24240482FE21FF0078
:104D40000000000101010100030007000000202213
:104D5000120A16221415FF000000000001070404C7
:104D60000404040000004046497949464041FF08D8
:104D70000800000001070404040404000004FC907F
:104D800092FE0002FE21FF00000000000000000073
:104D9000030007000000405054544DC54D5450408E
:104DA00000000000020505050502000000002028A3
:104DB00029A9A5B5A72928200000000003040404A0
:104DC000040300000000202212120A8E88097F00CE
:104DD000000000000404020201020204000040423C
:104DE000424242C2625E40400000000000000007F4
:104DF0000000000000002028A9A5A7B9A5A7292820
:104E00000000000000000000000700000080844453
:104E1000344C9012FE01FF00000000000000000072
:104E20000300070000007C8282827C101011FF00CA
:104E3000000000000000000000000700000010510A
:104E40005755557555D71010000000010705050589
:104E5000050500000000202292928A868081BF080A
:104E600008000000000704040404070000001050BC
:104E70005275555575D21010000000010705050543
:104E8000050500000000404042C2424242E25E404E
:104E900000000000000700000007000000002022C2
:104EA00092928A969495BF000000000000000000D6
:104EB000000007000000023E2222A2BE94953F009F
:104EC0000000000000030404040403000000202488
:104ED00015159DA480813F0000000000000304041C
:104EE0000404030000002022928A96A28081BF0061
:104EF000000000000000000000000700000020206B
:104F0000908D8B90A081BF00000000000000000089
:104F1000000007000000414F497949494041FF0026
:104F20000000000001070404040404000000828A59
:104F3000F282CABA8201FF202000000000000000B7
:104F40000000070000000C1252524C404041DF00AC
:104F500000000000010705050505050000001CA272
:104F6000A2229C0888893F00000000000705070472
:104F7000020102040000013F2525A5A1A0913F00E8
:104F8000000000000003040404040300000012F207
:104F900012121E008081FF2020000001010101018A
:104FA00000000700000002FE828282FE1011FF0056
:104FB000000000000000000000000700000002FEEA
:104FC000828282929011FF00000000000000000029
:104FD000000007000000023EA2A2A2BE8081BF081E
:104FE00008000000000000000000070000008082B0
:104FF000BEA8A8A8AABE808000000000000000078C
:1050000000000000000020212F2A2AEA2A2F202059
:105010000000000107040404040400000000202133
:10502000AFAAAABAAAAF202000000000000000002A
:10503000000700000000202222E2322E2021FF0083
:105040000000000000030000000007000000001244
:105050009252321E1011FF000000010100000000FA
:10506000000007000000023EA2A2A2A29091BF0889
:1050700008000000000704040404040000007C820F
:1050800082827C000001FF20200000000000000060
:10509000000007000000023E2222A2A290913F08D9
:1050A00008000000000304040404030000000042A0
:1050B0004A7242C26A5A420000000202020202031D
:1050C00002020202000000202212120A0E12200028
:1050D0000000020202020202020202020000212F6C
:1050E000A9B9A9A9A0A1FF000000000000070404BD
:1050F000040407000000021E909090909089BF0861
:1051000008000000040402010202040000004050F4
:1051100054544DC54D54504000000001070505058D
:1051200005070000000000129252320E0001FF003D
:105130000000010100000000000007000000105105
:1051400057555D5555D510100000000107050505A0
:105150000505000000002020908D0B102001BF00ED
:10516000000000000007050505050700000000001D
:105170001C2222E2221C00000000020202020203A2
:10518000020202020000021E10109089BF887F00F8
:1051900000000000000304040404030000002022B7
:1051A00092928A868081BF080800000000000000FB
:1051B000000007000000202212F20A162001FF2042
:1051C000200001010101010101010700000000228E
:1051D00026FA2222F22E220000000202020302021C
:1051E00003020202000004344D454D342829FF001B
:1051F00000000000010704040404040000001CA2D5
:10520000A2221C0040413F080800000007040503DB
:105210000505030100001010919191F1999710106C
:105220000000000000000000000700000000202433
:1052300015159DA488897F00000000000003040468
:10524000040403000000424A5673564A42417F0854
:105250000800000001010101010107000000043401
:105260004DC54D340401FF0000000202020302029A
:1052700002020700000020292BADA9E9AD2B29204F
:105280000000000003040404040300000000404286
:105290002222120E0001FF0808000000010704048A
:1052A000040404000000023E223E22222809FF00DE
:1052B0000000000001070404040404000000202092
:1052C000F41C2002FE21FF00000001010101010188
:1052D000030007000000023E2AEA2A2A2001FF00FC
:1052E00000000101010101010101070000000004AB
:1052F00084645C52FE01FF00000001010000000018
:105300000300070000002021A7A4A4BCA4A4A0209F
:10531000000000000405060404070400000002FE6B
:10532000828282FE0001FF000000000000000000F9
:105330000000070000002226BAA2B2AEA281BF0080
:105340000000000000000000000007000000404CCA
:1053500052D2524C4001FF00000000000003000048
:10536000010107000000021E1010909090893F007C
:1053700000000000000304040404030000004C5279
:10538000D24C4002FE01FF000000000003000101BA
:1053900003000700000080829E929292929E80807D
:1053A00000000000000000070000000000000002F4
:1053B0007E4848484A7E00000000020202020202C3
:1053C000020202020000023E2222223E0809FF00E1
:1053D0000000000001070404040404000000013F71
:1053E000252525202405FF000000000001070404F6
:1053F00004040400000002FE909092FE0001FF20D1
:105400002000000000000000000007000000202035
:105410002629A9E92926202000000004040202010F
:105420000202040000002020A1A1BDA1A1A9272003
:105430000000000000000000000700000000202223
:10544000120A96A280813F000000000000030404BD
:10545000040403000000053DA5A5A7A08A8ABF009B
:1054600000000000000000000000070000004041B4
:105470005F55557555554040000000000205050573
:105480000502000000004042625E40C242625E408F
:105490000000000000000007000000000000425E65
:1054A00052D252524041FF000000000000030000B1
:1054B00000000700000020A9ABADA9E9ADAB292091
:1054C000000000000704040404070000000004FCBE
:1054D00024240022FE01FF00000000010101010060
:1054E000030007000000053DA5A5A7A0A091BF08E7
:1054F0000800000000070404040407000000023E46
:1055000028282A3E0001FF080800000001070404C3
:1055100004040400000004FC80808042FE21FF009F
:10552000000000000000000003000700000020222F
:10553000120A16220001FF00000000000107040407
:105540000404040000001051D9575051515957100C
:1055500000000000070505050505050000004045A1
:105560005D5555755557404000000000010101018F
:10557000010700000000405054544DC54D545040A8
:105580000000000107040405040400000000404876
:1055900048444573444448400000000107040404A3
:1055A00004040000000040415F545474555F4040C3
:1055B000000000010704040404040400000000606B
:1055C000F0F8FCFCF8F060000000000000010303AC
:1055D000010000000000003070F0F0F0F0703000CA
:1055E000000000000000010100000000000000C0F9
:1055F000E0F0F8F8F0E0C00000000000000000005B
:10560000000000000000000000000000000000009A
:105610000000007E00000000000300000000060003
:1056200006000000000000000088FE88FE880000E0
:1056300003000300000C12FF428400010207020174
:10564000001824D8B04C80000300010201CC32D2F3
:105650000CC0000102020102000000060000000070
:1056600000000000000000F8060100000000030434
:1056700000000106F8000000040300000020A078EC
:10568000A020000000000000002020F820200000E2
:1056900000000000000000000000000806000000FC
:1056A000002020202020000000000000000000005A
:1056B0000000000000030000000080700E000000E9
:1056C0000300000000FC020202FC000102020201D1
:1056D000000004FE0000000000030000000C8242F5
:1056E000221C000302020202008C022222DC0001C2
:1056F0000202020100C0B08CFE8000000000030026
:10570000003E121212E200010202020100FC12121B
:1057100012E4000102020201000602C2320E000081
:105720000003000000DC222222DC00010202020150
:10573000003C424242FC0001020202010000008CD7
:10574000000000000001000000008C0000000002CA
:105750000100000000205088040200000000010247
:1057600000909090909000000000000000020488DB
:10577000502000020100000000040262120C000030
:105780000003000000FC02F28AFC00010202020099
:1057900000807846788000030000000300FE22228B
:1057A00022DC00030202020100FC0202028C000162
:1057B0000202020100FE020202FC000302020201D8
:1057C00000FE2222222200030202020200FE222206
:1057D000220200030000000000FC022222EC000173
:1057E0000202010300FE202020FE0003000000034F
:1057F000000202FE02020002020302020080000018
:1058000000FE00010202020100FE20508C02000393
:105810000000010200FE000000000003020202027C
:1058200000FE186018FE00030000000300FE0C30AC
:10583000C0FE00030000000300FC020202FC0001A5
:105840000202020100FE2222221C000300000000CE
:1058500000FC020202FC00010203020500FE2222FB
:10586000629C000300000003008C1222428C0001A5
:1058700002020201000202FE020200000003000018
:1058800000FE000000FE000102020201000E708016
:10589000700E000000030000007E807E807E00000D
:1058A000030003000006D820D80600030000000310
:1058B000000E30C0300E0000000300000002C222C3
:1058C0001A06000302020202000000FF01000000AD
:1058D0000007040000000E708000000000000300BC
:1058E00000000001FF0000000004070000040202A5
:1058F000040000000000000000000000000000089C
:105900000808080808000C12120C00000000000033
:105910000088484848F000010202020300FE08081F
:1059200008F000030202020100F00808081000015C
:105930000202020100F0080808FE00010202020350
:1059400000F0484848700001020202010010FC12F9
:1059500012000000030000000070888888F8000230
:105960000404040300FE080808F00003000000031C
:10597000000008FA0000000002030200000008FA1C
:10598000000000040403000000FE40A01008000313
:1059900000000102000002FE0000000002030200FD
:1059A00000F808F008F000030003000300F80808FE
:1059B00008F000030000000300F0080808F00001F0
:1059C0000202020100F8080808F0000701010100C6
:1059D00000F0080808F80000010101070000F810B5
:1059E000080800000300000000304848489000010B
:1059F000020202010008FE08080000000102020085
:105A000000F8000000F80001020202030038C000A4
:105A1000C038000000030000007880F880780000A3
:105A2000030003000018A040A018000300000003BA
:105A30000038C000C0380004040300000008884893
:105A4000281800030202020200000020DE0100000C
:105A50000000030400000000FF00000000000F0031
:105A6000000001DE200000000403000000656E74E9
:105A70007265203560432D3238604321000000629A
:105A800065747765656E203560432D32386043213B
:105A90000054656D70657261747572613A003238D8
:105AA000604382BE82C8208384838F2082DC82DDB3
:105AB0000035604381893238604380E380A680A747
:105AC00080E080EB0074656D70657261747572655D
:105AD000206973005265636F6D656E6461646F0069
